:100000000C945D000C9485000C9485000C94850084
:100010000C9485000C9485000C9485000C9485004C
:100020000C9485000C9485000C9485000C9485003C
:100030000C9485000C9485000C9485000C9485002C
:100040000C9497080C9485000C9407090C94E10813
:100050000C9485000C9485000C9485000C9485000C
:100060000C9485000C94850000000008000201003B
:100070000003040700000000000000000000000072
:10008000250028002B0000000000240027002A0083
:10009000040404040404040402020202020203032E
:1000A0000303030301020408102040800102040836
:1000B0001020010204081020D80A11241FBECFEF1F
:1000C000D8E0DEBFCDBF11E0A0E0B1E0E0E1F4E2B6
:1000D00002C005900D92A637B107D9F722E0A6E736
:1000E000B1E001C01D92A23FB207E1F710E0CDE5FB
:1000F000D0E004C02197FE010E94C710CC35D10783
:10010000C9F70E94410B0C9406120C94000090E079
:10011000FC01EC55FF4F249180579F4FFC018491C7
:10012000882399F090E0880F991FFC01EA57FF4F50
:10013000A591B491FC01E458FF4F859194918FB73C
:10014000F894EC91E22BEC938FBF089590E0FC01C2
:10015000E859FF4F2491FC01EC55FF4F3491FC010D
:10016000E057FF4FE491EE23C9F0222339F023300A
:1001700001F1A8F4213019F1223029F1F0E0EE0F5D
:10018000FF1FE458FF4FA591B4918FB7F894EC91FD
:10019000611126C030953E233C938FBF08952730D0
:1001A000A9F02830C9F0243049F7809180008F7D74
:1001B00003C0809180008F7780938000DFCF84B56B
:1001C0008F7784BDDBCF84B58F7DFBCF8091B0006E
:1001D0008F778093B000D2CF8091B0008F7DF9CF20
:1001E0003E2BDACF3FB7F89480917D0190917E014C
:1001F000A0917F01B091800126B5A89B05C02F3F3B
:1002000019F00196A11DB11D3FBFBA2FA92F982F3C
:100210008827BC01CD01620F711D811D911D42E037
:10022000660F771F881F991F4A95D1F708958F92FF
:100230009F92AF92BF92CF92DF92EF92FF920E9475
:10024000F2004B015C0188EEC82E83E0D82EE12C31
:10025000F12C0E94F200681979098A099B09683E0D
:10026000734081059105A8F321E0C21AD108E10885
:10027000F10888EE880E83E0981EA11CB11CC11401
:10028000D104E104F10429F7FF90EF90DF90CF90C3
:10029000BF90AF909F908F900895AF92BF92CF92F2
:1002A000DF92EF92FF920F931F93CF93DF936C0136
:1002B0007B018B01040F151FEB015E01AE18BF0817
:1002C000C017D10759F06991D601ED91FC910190C9
:1002D000F081E02DC6010995892B79F7C501DF91E1
:1002E000CF911F910F91FF90EF90DF90CF90BF9033
:1002F000AF900895FC01538D448D252F30E0842F5D
:1003000090E0821B930B541710F0CF96089501973D
:100310000895FC01918D828D981761F0A28DAE0F2A
:10032000BF2FB11D5D968C91928D9F5F9F73928FB1
:1003300090E008958FEF9FEF0895FC01918D828DDD
:10034000981731F0828DE80FF11D858D90E00895AA
:100350008FEF9FEF0895FC01918D228D892F90E002
:10036000805C9F4F821B91098F739927089581E8C4
:1003700091E00E94AB0121E0892B09F420E0822F5B
:10038000089580E090E0892B29F00E94B701811147
:100390000C9400000895FC01A48DA80FB92FB11D85
:1003A000A35ABF4F2C91848D90E001968F739927AB
:1003B000848FA689B7892C93A089B1898C91837089
:1003C00080648C93938D848D981306C00288F38982
:1003D000E02D80818F7D80830895EF92FF920F93AF
:1003E0001F93CF93DF93EC0181E0888F9B8D8C8DE1
:1003F00098131AC0E889F989808185FF15C09FB7D5
:10040000F894EE89FF896083E889F9898081837097
:10041000806480839FBF81E090E0DF91CF911F9146
:100420000F91FF90EF900895F62E0B8D10E00F5F67
:100430001F4F0F731127E02E8C8D8E110CC00FB63D
:1004400007FCFACFE889F989808185FFF5CFCE01D5
:100450000E94CB01F1CFEB8DEC0FFD2FF11DE35A84
:10046000FF4FF0829FB7F8940B8FEA89FB89808158
:100470008062CFCFCF93DF93EC01888D8823B9F0D2
:10048000AA89BB89E889F9898C9185FD03C080819F
:1004900086FD0DC00FB607FCF7CF8C9185FFF2CF1C
:1004A000808185FFEDCFCE010E94CB01E9CFDF91A6
:1004B000CF910895CF92DF92EF92FF92CF93DF9387
:1004C000EC01688D798D8A8D9B8D9B01AC010E941A
:1004D000A50F6B017C0168A179A18AA19BA19B0159
:1004E000AC010E94D50D9B01AC01C701B6010E9471
:1004F000460E0E94B80E6CAB7DAB8EAB9FABE88115
:10050000F9810084F185E02DCE01DF91CF91FF903C
:10051000EF90DF90CF900994CF93DF93FC01278178
:10052000222329F1EC0180850E94870089850E94A1
:1005300087008F81843011F0883099F48A850E9479
:1005400087008B850E9487008FA58F3F81F00E94D6
:1005500087006EA581E068278FA5DF91CF910C946D
:10056000A600833011F0863079F78A85EBCFDF91D2
:10057000CF910895CF93DF93FC0127812223A1F02F
:10058000EC010190F081E02D0284F385E02D60E024
:1005900009958FA58F3F41F00E9487006EA58FA51A
:1005A000DF91CF910C94A600DF91CF910895DC01EB
:1005B000ED91FC9122853385477055276627772773
:1005C00041505109610971094730510561057105B3
:1005D00060F4FA01E251FD4F0C94C710F802FA02E0
:1005E000FC02FE0200030203040361E0F901099426
:1005F00065E0FCCF64E0FACF66E0F8CF62E0F6CFCA
:100600006AE0F4CF68E0F2CF69E0F0CFCF93DF93F8
:10061000EC01CB01BA0126E030E040E050E00E945E
:10062000A810623071058105910589F16CF461159E
:10063000710581059105D1F0613071058105910544
:10064000F9F0DF91CF91089564307105810591052E
:1006500061F124F1653071058105910591F7E8811B
:10066000F9810284F385E02D66E006C0E881F98116
:100670000284F385E02D64E0CE01DF91CF910994EF
:10068000E881F9810284F385E02D65E0F5CFE8810A
:10069000F9810284F385E02D61E0EECFE881F981F4
:1006A0000284F385E02D63E0E7CFE881F9810284DD
:1006B000F385E02D62E0E0CFDC01ED91FC91028456
:1006C000F385E02D43705527662777274230510583
:1006D0006105710571F0433051056105710559F0EF
:1006E000413051056105710511F065E0099466E03E
:1006F000FDCF6AE0FBCF69E0F9CFCF93DF93EC0148
:10070000CB01BA0123E030E040E050E00E94A810A5
:10071000613071058105910599F06230710581059F
:100720009105A9F0672B682B692BC1F4E881F98149
:100730000284F385E02D64E0CE01DF91CF9109942E
:10074000E881F9810284F385E02D61E0F5CFE8814D
:10075000F9810284F385E02D62E0EECFDF91CF9145
:100760000895DC01ED91FC910284F385E02D437046
:10077000552766277727423051056105710571F0CD
:10078000433051056105710559F04130510561054E
:10079000710511F062E0099463E0FDCF61E0FBCFE9
:1007A00060E0F9CFCF93DF93EC01E881F981028417
:1007B000F385E02D8A8160E0811162E0CE01099528
:1007C000E881F9810284F385E02D8A8161E081115D
:1007D00063E0CE0109958CA59DA58230910538F086
:1007E000880F991F880F991F05970197F1F7E881E6
:1007F000F9810284F385E02D8A8160E0811162E055
:10080000CE01DF91CF910994CF93DF93EC0120E0EB
:1008100030E0A901688D798D8A8D9B8D0E94A00F93
:1008200018162CF4E8A9F9A9DF91CF910994EAA947
:10083000FBA9FACFCF92DF92EF92FF920F931F9313
:10084000CF93DF93DC011796CC91C43039F0C830D8
:1008500059F1C33019F0C63049F1C2E08C01085F8C
:100860001F4FF12CE12CC62ED12CD1E0F801648170
:10087000C6010E2C02C0959587950A94E2F780FD7B
:100880006D270F5F1F4F80810E94A600BFEFEB1AFC
:10089000FB0AEC1658F3DF91CF911F910F91FF9057
:1008A000EF90DF90CF900895C4E0D8CFC3E0D6CFCB
:1008B000DC011796EC911797E93008F038C0F0E0AA
:1008C000EC59FB4F0C94C7106D04730479047F043A
:1008D000850497048B0497049104ED91FC910684A0
:1008E000F785E02D0994ED91FC910088F189E02DC8
:1008F000F9CFED91FC910288F389E02DF3CFED91D2
:10090000FC910488F589E02DEDCFED91FC910688EE
:10091000F789E02DE7CFED91FC91008CF18DE02D72
:10092000E1CFED91FC91028CF38DE02DDBCF0895AA
:100930004F925F926F927F928F929F92AF92BF92EF
:10094000CF92DF92EF92FF920F931F93CF93DF939B
:10095000EC01CC88DD88EE88FF8888899989AA898E
:10096000BB89C81AD90AEA0AFB0A688D798D8A8D73
:100970009B8D9B01AC010E94A50F4B015C0168A1FE
:1009800079A18AA19BA19B01AC010E94D50D9B017D
:10099000AC01C501B4010E94460E0E94B80EC114FC
:1009A000D104E104F10409F0B6C06230710581059B
:1009B00091050CF0D0C01B821C821D821E82188EF5
:1009C000198E1A8E1B8E1CAA1DAA1EAA1FAAC12C24
:1009D000D12C7601C701B601DF91CF911F910F9104
:1009E000FF90EF90DF90CF90BF90AF909F908F904F
:1009F0007F906F905F904F90089510161106120629
:100A00001306B4F46C157D058E059F051CF42A8130
:100A10002111A1C09B01AC0188279927DC01821B11
:100A2000930BA40BB50B8CAB9DABAEABBFAB93C024
:100A3000011511052105310509F48DC06C157D05E1
:100A40008E059F050CF087C08A81882309F483C036
:100A500030952095109501951F4F2F4F3F4F0CABB0
:100A60001DAB2EAB3FAB77C001151105210531053C
:100A700009F471C08824992454018C189D08AE088B
:100A8000BF08681579058A059B050CF064C08A814A
:100A9000811161C0DDCFCCACDDACEEACFFACA70109
:100AA0009601C701B6010E94D50D2B013C01C5017D
:100AB000B4010E94F00E20E030E040E850E40E94D3
:100AC000A50F20E030E040E85FE30E94D50D9B01D8
:100AD000AC01C301B2010E94460E9B01AC01C701EB
:100AE000B6010E94D40D3B016C01FE01E05CFF4F9A
:100AF000E080F180028113819701A8010E94A00F7C
:100B0000181614F473018601C701D8018CAF9DAF8C
:100B1000AEAFBFAF3AC00CA91DA92EA93FA91C14A6
:100B20001D041E041F040CF468CF101611061206D3
:100B300013060CF099CF0027112798010C191D09F5
:100B40002E093F0960177107820793070CF062CFE7
:100B50002A8121115FCF8CA89DA8AEA8BFA88114BF
:100B60009104A104B10409F096CF88AD99ADAAAD66
:100B7000BBAD8CAF9DAFAEAFBFAF81E01C141D0409
:100B80001E041F040CF080E08A833FEF831A930A4F
:100B9000A30AB30A8CAA9DAAAEAABFAA8CAC9DAC2C
:100BA000AEACBFACC501B4010E94BF0E6B017C01AD
:100BB000CB82DC82ED82FE82A501940160E074E2CA
:100BC00084E799E40E94460E688F798F8A8F9B8F05
:100BD0002A812111FFCE9058688F798F8A8F9B8F41
:100BE000F9CE08954F925F926F927F928F929F926B
:100BF000AF92BF92CF92DF92EF92FF92CF93DF93AB
:100C0000EC01C880D980EA80FB8020E030E0A901B7
:100C1000C701B6010E94410E87FF0DC020E030E001
:100C200044EB53E4C701B6010E94D50D6883798374
:100C30008A839B83E6CFC701B6010E94B80E4B01A1
:100C4000CB0168E671E00E947210BC01990F880B1D
:100C5000990B0E94F00E2B013C01B401990C880BFA
:100C6000990B0E94F00E9B01AC01C701B6010E94D6
:100C7000D40D9B01AC01C301B2010E94D50D688364
:100C800079838A839B83DF91CF91FF90EF90DF90F0
:100C9000CF90BF90AF909F908F907F906F905F901C
:100CA0004F900895AF92BF92CF92DF92EF92FF9252
:100CB0000F931F93CF93DF93EC018F8D98A1A9A180
:100CC000BAA1892B8A2B8B2BE1F10E94F2006B01D8
:100CD0007C018E010C5B1F4FF80180819181A28104
:100CE000B381B701A601481B590B6A0B7B0B8F8D93
:100CF00098A1A9A1BAA1481759076A077B0708F16B
:100D00008CA59DA5AEA5BFA52E8D2223D9F1019658
:100D1000A11DB11D8CA79DA7AEA7BFA74CA55DA522
:100D20006EA57FA55E01FCE1AF0EB11CC5010E945E
:100D30005804F801C082D182E282F382C5010E9488
:100D400098046CA57DA58EA59FA50E94F00E288510
:100D500039854A855B850E94A50F688F798F8A8FB8
:100D60009B8F8C89882391F0CE014896DF91CF919B
:100D70001F910F91FF90EF90DF90CF90BF90AF90B9
:100D80000C94F2050197A109B109C4CFDF91CF916D
:100D90001F910F91FF90EF90DF90CF90BF90AF9099
:100DA0000895FC0101900020E9F73197AF01481B3D
:100DB000590BBC0181E891E00C944D018F929F92F8
:100DC000AF92BF920F931F93CF93DF93CDB7DEB750
:100DD000A1970FB6F894DEBF0FBECDBF19A2423067
:100DE00008F44AE08E010F5D1F4F842E912CB12C28
:100DF000A12CA50194010E948610E62FB901CA0119
:100E0000EA30F4F4E05DD801EE938D01232B242B1E
:100E1000252B79F790E080E0109719F0CD010E9422
:100E2000D106A1960FB6F894DEBF0FBECDBFDF91FD
:100E3000CF911F910F91BF90AF909F908F90089589
:100E4000E95CE1CF4F925F926F927F928F929F9277
:100E5000AF92BF92CF92DF92EF92FF920F931F93C8
:100E6000CF936B017C01742EAC019B010E94581042
:100E7000882399F088E391E0CF911F910F91FF9023
:100E8000EF90DF90CF90BF90AF909F908F907F902A
:100E90006F905F904F900C94D10646015701E894F3
:100EA000B7F82FEF3FEF4FE75FE7C501B4010E94AE
:100EB000581081110DC02FEF3FEF4FE75FE7C501DD
:100EC000B4010E94410E18161CF48CE391E0D4CFBB
:100ED0002FEF3FEF4FE75FE4C701B6010E94A00F7D
:100EE00018161CF480E491E0C7CF2FEF3FEF4FE7D7
:100EF0005FECC701B6010E94410E87FDF3CF20E0F1
:100F000030E0A901C701B6010E94410E10E000E0E7
:100F100087FF0AC06DE281E891E00E94ED018C013B
:100F2000F7FAF094F7F8F094C0E060E070E080E049
:100F30009FE37C1641F020E030E040E251E40E9463
:100F4000460ECF5FF6CFA70196010E94D50D2B016B
:100F50003C010E94BF0E4B015C014AE00E94DE068C
:100F60007C01E00EF11ECC23C1F1C501B4010E9449
:100F7000EE0E9B01AC01C301B2010E94D40D4B01E6
:100F80005C016EE281E891E00E94ED01E80EF91E3D
:100F9000C15018F120E030E040E251E4C501B40155
:100FA0000E94A50F2B013C010E94BF0E4B01B12CEA
:100FB000A12C4AE0C501B4010E94DE06E80EF91E2C
:100FC000C501B4010E94EE0E9B01AC01C301B20148
:100FD0000E94D40D4B015C01DBCFC701CF911F9163
:100FE0000F91FF90EF90DF90CF90BF90AF909F90C8
:100FF0008F907F906F905F904F900895CF93DF9385
:10100000EC0184E491E00E94D106688179818A81B3
:101010009B8142E0DF91CF910C9422074F925F9227
:101020006F927F928F929F92AF92BF92CF92DF92F8
:10103000EF92FF92CF93DF93EC016A017B0120E0F6
:1010400030E0A901CB01B6010E94410E87FF04C028
:10105000F7FAF094F7F8F09488A099A0AAA0BBA0A2
:10106000A7019601C501B4010E94410E882309F42D
:101070004DC06CA97DA98EA99FA90E94F00E2B01DD
:101080003C01A7019601C501B4010E94460E9B01D7
:10109000AC01C301B2010E94A50F0E94B80E6CAB57
:1010A0007DAB8EAB9FABA701960160E070E080E066
:1010B00090E40E94460E0E94181026E53EE04DE2A4
:1010C0005FE30E94A50F20E034E244E759E40E9468
:1010D000A50F68AF79AF8AAF9BAFC8A2D9A2EAA229
:1010E000FBA2E881F9810084F185E02DCE01DF913A
:1010F000CF91FF90EF90DF90CF90BF90AF909F90F7
:101100008F907F906F905F904F900994DF91CF9177
:10111000FF90EF90DF90CF90BF90AF909F908F9017
:101120007F906F905F904F9008950C947D111F9267
:101130000F920FB60F9211242F933F938F939F938B
:10114000AF93BF938091790190917A01A0917B0137
:10115000B0917C013091780123E0230F2D3758F5B1
:101160000196A11DB11D2093780180937901909380
:101170007A01A0937B01B0937C0180917D019091D5
:101180007E01A0917F01B09180010196A11DB11D4A
:1011900080937D0190937E01A0937F01B0938001A5
:1011A000BF91AF919F918F913F912F910F900FBE63
:1011B0000F901F90189526E8230F0296A11DB11DD0
:1011C000D2CF1F920F920FB60F9211242F933F93FD
:1011D0004F935F936F937F938F939F93AF93BF933F
:1011E000EF93FF9381E891E00E94CB01FF91EF9193
:1011F000BF91AF919F918F917F916F915F914F912F
:101200003F912F910F900FBE0F901F9018951F9236
:101210000F920FB60F9211242F938F939F93EF93FA
:10122000FF93E0919101F09192018081E09197010B
:10123000F091980182FD1BC0908180919A018F5F8F
:101240008F7320919B01821741F0E0919A01F0E0A9
:10125000EF57FE4F958F80939A01FF91EF919F91E9
:101260008F912F910F900FBE0F901F901895808136
:10127000F4CFCF92DF92EF92FF920F931F93CF9311
:10128000DF93EC018AE091E0998388836F83188A69
:10129000198A1A8A1B8A1C8A1D8A1E8A1F8A188E1E
:1012A000198E1A8E1B8E1C8E1D8E1E8E1F8E18A2DE
:1012B00019A21AA21BA2C12CD12C80E8E82E8FE320
:1012C000F82ECCA2DDA2EEA2FFA21B821C821D8200
:1012D0001E8281E090E09DA78CA78FEF8FA718A6B4
:1012E00019A61AA61BA64887298784E08A8785E065
:1012F0008B871EA61CAA1DAA1EAA1FAA18AE19AE6D
:101300001AAE1BAE1CAE1DAE1EAE1FAE8E01005C33
:101310001F4FF801C082D182E282F3821A821C86BA
:101320001D861E861F86CE010E948C02B701A60173
:10133000CE010E940E08A70196016C8D7D8D8E8DC9
:101340009F8D0E94410E882309F1CC8EDD8EEE8E9A
:10135000FF8E80E094E2A4E7B9E4F80180839183F2
:10136000A283B3838CA99DA9AEA9BFA9181619069B
:101370001A061B065CF4CE01DF91CF911F910F91ED
:10138000FF90EF90DF90CF900C945A02DF91CF91B5
:101390001F910F91FF90EF90DF90CF9008954F92A3
:1013A0005F926F927F928F929F92AF92BF92CF92F5
:1013B000DF92EF920F93CF93DF93CDB7DEB7C45494
:1013C000D1090FB6F894DEBF0FBECDBF6C014B0143
:1013D00029013A01FC01148A158A82E090E0978B7A
:1013E000868B108E118E128E138E5601FCE1AF0E7D
:1013F000B11C23E042E064E0C5010E943909F60116
:101400009182808242825382648275820683E7825F
:10141000B401990C880B990B0E94F00EA301920164
:101420000E94A50F9B01AC0160E070E084EB93E4A7
:101430000E94460EF60160877187828793872E2D62
:10144000402F61E0CE0101960E9439098B81F6019F
:10145000868F8C819D81AE81BF81878F90A3A1A350
:10146000B2A3888583A3898584A38A8585A38B8578
:1014700086A38C8587A38D8580A78E8581A78F8580
:1014800082A7888983A789899A89AB89BC8984A71F
:1014900095A7A6A7B7A78D899E89AF89B88D80AB80
:1014A00091ABA2ABB3AB898D9A8DAB8DBC8D84AB68
:1014B00095ABA6ABB7AB8D8D9E8DAF8DB8A180AF30
:1014C00091AFA2AFB3AF89A19AA1ABA1BCA184AFE8
:1014D00095AFA6AFB7AFE05CFF4F8DA19EA1AFA1C6
:1014E000B8A580839183A283B383349689A59AA5F6
:1014F000ABA5BCA580839183A283B38334968DA5CD
:101500009EA59183808332968FA58083319688A98A
:101510008083319689A99AA99183808332968BA979
:101520009CA99183808332968DA99EA9AFA9B8AD5D
:1015300080839183A283B383349689AD9AADABAD9A
:10154000BCAD80839183A283B383349621968CAD06
:101550009DADAEADBFAD219780839183A283B38350
:10156000349625968CAD9DADAEADBFAD25978083ED
:101570009183A283B38340E050E06AEF74E4C50135
:101580000E940E08CC5BDF4F0FB6F894DEBF0FBE93
:10159000CDBFDF91CF910F91EF90DF90CF90BF90B3
:1015A000AF909F908F907F906F905F904F90089535
:1015B000EF920F93E1E8F1E01382128288EE93E05C
:1015C000A0E0B0E084839583A683B7838AE291E0AC
:1015D0009183808385EC90E09587848784EC90E00C
:1015E0009787868780EC90E0918B808B81EC90E0F0
:1015F000938B828B82EC90E0958B848B86EC90E0D1
:10160000978B868B118E128E138E148E85E0E82EAA
:1016100002E02BEA3AEA4AE850E462E87CE08EE82D
:1016200092E00E94CF0996E0E92E03E025E535E53A
:1016300045E550E462E87CE08EE292E00E94CF094A
:10164000EEE1F2E082E090E0958784878EE892E018
:10165000938382838EE292E09183808380E090E0A6
:10166000A4E3B3E484839583A683B78380E090E00A
:10167000A4E3B2EC80879187A287B3870F91EF90A4
:101680000895CF93DF9300D000D0CDB7DEB7789424
:1016900084B5826084BD84B5816084BD85B5826077
:1016A00085BD85B5816085BD80916E008160809328
:1016B0006E00109281008091810082608093810091
:1016C00080918100816080938100809180008160A1
:1016D000809380008091B10084608093B1008091FC
:1016E000B00081608093B00080917A008460809324
:1016F0007A0080917A00826080937A0080917A00EB
:10170000816080937A0080917A00806880937A006B
:101710001092C100E0919101F091920182E08083EA
:10172000E0918D01F0918E011082E0918F01F09196
:1017300090018FEC808310929901E0919501F091D6
:10174000960186E08083E0919301F091940180817D
:1017500080618083E0919301F091940180818860A1
:101760008083E0919301F09194018081806880836F
:10177000E0919301F091940180818F7D80838CE4CE
:1017800091E00E94D10681E691E00E94D10688E0B6
:101790000E94870061E088E00E94A6000E94170175
:1017A00080E090E0A4EBB3E480939A0290939B02D4
:1017B000A0939C02B0939D0210929E0210929F02F1
:1017C0001092A0021092A10281E08093A202809365
:1017D000A30220E030E44CE156E46091C60270912F
:1017E000C7028091C8029091C9020E94410E8823CD
:1017F00049F180E090E4ACE1B6E48093C6029093B6
:10180000C702A093C802B093C90280E090E0A8ECA0
:10181000B2E48093EA029093EB02A093EC02B093BF
:10182000ED028091DE029091DF02A091E002B09182
:10183000E102181619061A061B0624F48AEA92E039
:101840000E945A0240E050E46CE975E48AEA92E0B2
:101850000E940E0880E090E0A4EBB2E480933A028C
:1018600090933B02A0933C02B0933D0280E090E055
:10187000A4EBB2EC80933E0290933F02A09340020F
:10188000B09341021092420281E08093430220E033
:1018900030E44CE156E460916602709167028091F9
:1018A0006802909169020E94410E882349F180E00C
:1018B00090E4ACE1B6E48093660290936702A09353
:1018C0006802B093690280E090E0A8ECB2E48093F3
:1018D0008A0290938B02A0938C02B0938D02809128
:1018E0007E0290917F02A0918002B0918102181631
:1018F00019061A061B0624F48AE492E00E945A0292
:1019000040E050E46CE975E48AE492E00E940E083D
:101910000E94170160E088E00E94A60088E6282E59
:101920003324339480912A0290912B02029709F07C
:10193000C8C00091200210912102D801D0966D916B
:101940007D918D919C91D3979C96CD90DD90ED905B
:10195000FC909F976C197D098E099F091616170632
:10196000180619060CF0E5C00E94F00EF80120855B
:101970003185428553850E94A50F20E030E0A90102
:101980000E94410E81111CC020E030E044EB52E483
:10199000609122027091230280912402909125028D
:1019A0000E94410E8111CDC080E090E0A7E8B3E431
:1019B0008093220290932302A0932402B0932502E5
:1019C000C0902202D0902302E0902402F0902502E1
:1019D000C982DA82EB82FC82D80154968C915497AA
:1019E000882309F4B3C0CE0101960E94F205F801E4
:1019F000208D318D428D538D69817A818B819C81BF
:101A00000E94D40D20E030E047E054E40E94D50D60
:101A10004B015C010E94B80E6B01CB01B1010E9429
:101A20007210BC01645B7109072E000C880B990BC6
:101A30000E94F00E2B013C01B601DD0C880B990BC6
:101A40000E94F00E9B01AC01C501B4010E94D40DAF
:101A50009B01AC01C301B2010E94D50DF8012085A4
:101A60003185428553850E94460E0E94B80EAB0117
:101A7000770F660B770BF80184A595A5A6A5B7A5EA
:101A8000840F951FA61FB71FC0A8D1A8E2A8F3A86E
:101A90008C159D05AE05BF0541F080AB91ABA2ABA7
:101AA000B3ABC8014C960E9498048091200290919B
:101AB00021020E94520680911E0290911F020E94F4
:101AC000520680917601909177010196909377016B
:101AD00080937601843F9140FCF084E691E00E947F
:101AE000D10660912202709123028091240290918C
:101AF000250242E00E94220786EA92E00E94FE0749
:101B000086E492E00E94FE0781E691E00E94D10601
:101B1000109277011092760180E090E0892B09F411
:101B200001CF0E94B701882309F4FCCE0E94000077
:101B3000F9CE90958095709561957F4F8F4F9F4F0F
:101B400013CF80E090E0A4EBB2E432CF50968D90BA
:101B50009D90AD90BC905397A5019401C701B6012B
:101B60000E94410E87FF05C089829A82AB82BC82A7
:101B70000DC0F80184849584A684B784A5019401DE
:101B8000C701B6010E94A00F181674F3D801589629
:101B90002D913D914D915C915B9769817A818B810B
:101BA0009C810E94D40D5ACF5058BB27AA270E946F
:101BB000EC0D0C94660F0E94580F38F00E945F0FD6
:101BC00020F039F49F3F19F426F40C94550F0EF4CD
:101BD000E095E7FB0C944F0FE92F0E94770F58F325
:101BE000BA17620773078407950720F079F4A6F502
:101BF0000C94990F0EF4E0950B2EBA2FA02D0B012B
:101C0000B90190010C01CA01A0011124FF27591B41
:101C100099F0593F50F4503E68F11A16F040A22F47
:101C2000232F342F4427585FF3CF469537952795B8
:101C3000A795F0405395C9F77EF41F16BA0B620BB7
:101C4000730B840BBAF09150A1F0FF0FBB1F661FFE
:101C5000771F881FC2F70EC0BA0F621F731F841F41
:101C600048F4879577956795B795F7959E3F08F067
:101C7000B0CF9395880F08F09927EE0F9795879529
:101C800008950E942B0F08F481E008950E945A0ED7
:101C90000C94660F0E945F0F58F00E94580F40F09E
:101CA00029F45F3F29F00C944F0F51110C949A0FB7
:101CB0000C94550F0E94770F68F39923B1F35523C5
:101CC00091F3951B550BBB27AA276217730784074F
:101CD00038F09F5F5F4F220F331F441FAA1FA9F3E5
:101CE00035D00E2E3AF0E0E832D091505040E695D3
:101CF000001CCAF72BD0FE2F29D0660F771F881F34
:101D0000BB1F261737074807AB07B0E809F0BB0B26
:101D1000802DBF01FF2793585F4F3AF09E3F51053A
:101D200078F00C944F0F0C949A0F5F3FE4F3983EB9
:101D3000D4F3869577956795B795F7959F5FC9F723
:101D4000880F911D9695879597F90895E1E0660FA4
:101D5000771F881FBB1F621773078407BA0720F01D
:101D6000621B730B840BBA0BEE1F88F7E095089586
:101D70000E94BF0E6894B1110C949A0F08950E94AE
:101D80007F0F88F09F5798F0B92F9927B751B0F07F
:101D9000E1F0660F771F881F991F1AF0BA95C9F7EF
:101DA00014C0B13091F00E94990FB1E008950C94E5
:101DB000990F672F782F8827B85F39F0B93FCCF398
:101DC000869577956795B395D9F73EF4909580956C
:101DD000709561957F4F8F4F9F4F0895E89409C08C
:101DE00097FB3EF490958095709561957F4F8F4F4E
:101DF0009F4F9923A9F0F92F96E9BB279395F69564
:101E0000879577956795B795F111F8CFFAF4BB0FE1
:101E100011F460FF1BC06F5F7F4F8F4F9F4F16C045
:101E2000882311F096E911C0772321F09EE8872FCF
:101E3000762F05C0662371F096E8862F70E060E08B
:101E40002AF09A95660F771F881FDAF7880F969504
:101E5000879597F90895990F0008550FAA0BE0E8A8
:101E6000FEEF16161706E807F907C0F0121613065C
:101E7000E407F50798F0621B730B840B950B39F49C
:101E80000A2661F0232B242B252B21F408950A2602
:101E900009F4A140A6958FEF811D811D089597F942
:101EA0009F6780E870E060E008959FEF80EC089500
:101EB00000240A9416161706180609060895002429
:101EC0000A9412161306140605060895092E0394A3
:101ED000000C11F4882352F0BB0F40F4BF2B11F417
:101EE00060FF04C06F5F7F4F8F4F9F4F089557FD76
:101EF0009058440F551F59F05F3F71F04795880F78
:101F000097FB991F61F09F3F79F08795089512160E
:101F100013061406551FF2CF4695F1DF08C01616BA
:101F200017061806991FF1CF86957105610508946B
:101F30000895E894BB2766277727CB0197F9089582
:101F40000E942B0F08F48FEF08950E94B80F0C9495
:101F5000660F0E94580F38F00E945F0F20F0952303
:101F600011F00C944F0F0C94550F11240C949A0FF0
:101F70000E94770F70F3959FC1F3950F50E0551FA6
:101F8000629FF001729FBB27F00DB11D639FAA27CE
:101F9000F00DB11DAA1F649F6627B00DA11D661F1D
:101FA000829F2227B00DA11D621F739FB00DA11D3E
:101FB000621F839FA00D611D221F749F3327A00DF8
:101FC000611D231F849F600D211D822F762F6A2F94
:101FD00011249F5750409AF0F1F088234AF0EE0FF9
:101FE000FF1FBB1F661F771F881F91505040A9F726
:101FF0009E3F510580F00C944F0F0C949A0F5F3F59
:10200000E4F3983ED4F3869577956795B795F79561
:10201000E7959F5FC1F7FE2B880F911D96958795D9
:1020200097F9089519F416F40C94550F0C945D105B
:102030000E947F0FB8F39923C9F3B6F39F57550B4E
:1020400087FF0E946B100024A0E640EA90018058B0
:102050005695979528F4805C660F771F881F20F0AF
:1020600026173707480730F4621B730B840B2029AF
:1020700031294A2BA69517940794202531254A2704
:1020800058F7660F771F881F20F026173707480775
:1020900030F4620B730B840B200D311D411DA09594
:1020A00081F7B901842F9158880F969587950895E7
:1020B0000E942B0F880B990B08959F3F31F0915090
:1020C00020F4879577956795B795880F911D96951C
:1020D000879597F9089591505040660F771F881F94
:1020E000D2F7089597FB072E16F4009407D077FDDA
:1020F00009D00E94CD1007FC05D03EF49095819543
:102100009F4F0895709561957F4F0895A1E21A2E13
:10211000AA1BBB1BFD010DC0AA1FBB1FEE1FFF1F8B
:10212000A217B307E407F50720F0A21BB30BE40BDB
:10213000F50B661F771F881F991F1A9469F7609522
:102140007095809590959B01AC01BD01CF010895DC
:10215000052E97FB1EF400940E94BF1057FD07D078
:102160000E94861007FC03D04EF40C94BF105095CB
:102170004095309521953F4F4F4F5F4F0895909573
:102180008095709561957F4F8F4F9F4F0895EE0F0B
:10219000FF1F0590F491E02D0994AA1BBB1B51E190
:1021A00007C0AA1FBB1FA617B70710F0A61BB70BC7
:1021B000881F991F5A95A9F780959095BC01CD016C
:1021C00008950F931F93CF93DF938230910510F4FE
:1021D00082E090E0E091F002F091F10230E020E046
:1021E000B0E0A0E0309799F42115310509F44AC018
:1021F000281B390B24303105D8F58A819B81611564
:10220000710589F1FB0193838283FE0111C0408136
:1022100051810281138148175907E0F04817590787
:1022200099F4109761F012960C93129713961C93E1
:102230003296CF01DF91CF911F910F9108950093B6
:10224000F0021093F102F4CF2115310551F042173D
:10225000530738F0A901DB019A01BD01DF01F80144
:10226000C1CFEF01F9CF9093F1028093F002CDCF6F
:10227000FE01E20FF31F81939193225031093983BC
:102280002883D7CF2091EE023091EF02232B41F427
:1022900020910201309103013093EF022093EE026E
:1022A00020910001309101012115310541F42DB734
:1022B0003EB74091040150910501241B350BE0917C
:1022C000EE02F091EF02E217F307A0F42E1B3F0B92
:1022D0002817390778F0AC014E5F5F4F2417350798
:1022E00048F04E0F5F1F5093EF024093EE02819330
:1022F00091939FCFF0E0E0E09CCFCF93DF930097E6
:10230000E9F0FC01329713821282A091F002B091A1
:10231000F102ED0130E020E01097A1F4208131813D
:10232000820F931F2091EE023091EF022817390798
:1023300009F061C0F093EF02E093EE02DF91CF91DC
:102340000895EA01CE17DF07E8F54A815B819E0117
:1023500041155105B1F7E901FB83EA834991599190
:10236000C40FD51FEC17FD0761F48081918102969F
:10237000840F951FE90199838883828193819B83D0
:102380008A83F0E0E0E012968D919C91139700977C
:10239000B9F52D913C911197CD010296820F931FB3
:1023A0002091EE023091EF022817390739F6309765
:1023B00051F51092F1021092F002B093EF02A09347
:1023C000EE02BCCFD383C28340815181840F951F1D
:1023D000C817D90761F44E5F5F4F88819981480F14
:1023E000591F518340838A819B8193838283211566
:1023F000310509F0B0CFF093F102E093F0029ECFE7
:10240000FD01DC01C0CF13821282D7CFF894FFCF39
:102410000000F202800000000000BA028C02F10508
:10242000950898041A0458040404D203B1037D03E8
:102430005C030603D70200000000ED014D017A01A4
:102440003A02AB0189019D016E616E00696E660002
:102450006F76660009617869733A2000537461727F
:1024600074696E6720537465707065725465737417
:10247000000D0A007461726765742062656172699B
:062480006E673A20000027
:00000001FF
